:100000000C946C000C9494000C9494000C94940048
:100010000C9494000C9494000C9494000C94940010
:100020000C9494000C9494000C9494000C94940000
:100030000C9494000C9494000C9494000C949400F0
:100040000C9449060C9494000C9417060C94F1053A
:100050000C9494000C9494000C9494000C949400D0
:100060000C9494000C94940005A84CCDB2D44EB9D5
:100070003836A9020C50B9918688083CA6AAAA2A4B
:10008000BE000000803F00000008000201000003E5
:100090000407000000000000000000000000250030
:1000A00028002B0000000000240027002A00040480
:1000B0000404040404040202020202020303030310
:1000C00003030102040810204080010204081020EC
:1000D000010204081020930611241FBECFEFD8E0C0
:1000E000DEBFCDBF22E0A2E4B1E001C01D92AC387A
:1000F000B207E1F711E0A0E0B1E0E6E2FAE102C008
:1001000005900D92A234B107D9F710E0CCE6D0E00B
:1001100004C02197FE010E94060DCB36D107C9F716
:100120000E9450070C94110D0C940000E3E5F1E0DF
:10013000A089B18982E08C93A485B5851C92A6859F
:10014000B7858FEC8C93108EA489B58986E08C934B
:10015000A289B3898C9180618C93A289B3898C9197
:1001600088608C93A289B3898C9180688C93028873
:10017000F389E02D80818F7D8083089590E0FC01DC
:10018000EE53FF4F2491FC01E255FF4F84918823E9
:1001900099F090E0880F991FFC01EC55FF4FA59155
:1001A000B491FC01E656FF4F859194918FB7F89476
:1001B000EC91E22BEC938FBF0895CF92DF92EF92F8
:1001C000FF920F931F93CF93DF936C017A018B0102
:1001D000C0E0D0E0CE15DF0589F0D8016D918D012A
:1001E000D601ED91FC910190F081E02DC6010995B9
:1001F000892B11F47E0102C02196ECCFC701DF915B
:10020000CF911F910F91FF90EF90DF90CF900895C5
:10021000089580E090E00895FC01538D448D252FD2
:1002200030E0842F90E0821B930B541710F0CF9690
:10023000089501970895FC01918D828D981761F0C2
:10024000828DDF01A80FB11D5D968C91928D9F5F0D
:100250009F73928F90E008958FEF9FEF0895FC01B8
:10026000918D828D981731F0828DE80FF11D858D6B
:1002700090E008958FEF9FEF0895FC01918D228DFE
:10028000892F90E0805C9F4F821B91098F73992783
:10029000089583E591E00E943D0121E0892B09F456
:1002A00020E0822F0895FC01848DDF01A80FB11D8D
:1002B000A35ABF4F2C91848D90E001968F7399279C
:1002C000848FA689B7892C93A089B1898C91806489
:1002D0008C93938D848D981306C00288F389E02D4A
:1002E00080818F7D80830895EF92FF920F931F93FB
:1002F000CF93DF93EC0181E0888F9B8D8C8D9813D9
:1003000005C0E889F989808185FD24C0F62E0B8D12
:1003100010E00F5F1F4F0F731127E02E8C8DE81236
:100320000CC00FB607FCFACFE889F989808185FFF8
:10033000F5CFCE010E945301F1CF8B8DFE01E80F66
:10034000F11DE35AFF4FF0820B8FEA89FB89808110
:10035000806207C0EE89FF896083E889F98980811E
:100360008064808381E090E0DF91CF911F910F91B5
:10037000FF90EF900895CF93DF93EC01888D882351
:10038000C9F0EA89FB89808185FD05C0A889B98902
:100390008C9186FD0FC00FB607FCF5CF808185FFDD
:1003A000F2CFA889B9898C9185FFEDCFCE010E944B
:1003B0005301E7CFDF91CF91089580E090E0892B42
:1003C00029F00E94490181110C940000089590E0E9
:1003D000FC01EA57FF4F3491FC01EE53FF4F24918B
:1003E000FC01E255FF4FE491EE2309F43BC03323B7
:1003F00039F1333091F038F43130A9F0323001F571
:1004000084B58F7D12C0373091F03830A1F0343090
:10041000B9F4809180008F7D03C0809180008F7738
:10042000809380000DC084B58F7784BD09C0809112
:10043000B0008F7703C08091B0008F7D8093B000B3
:10044000F0E0EE0FFF1FE656FF4FA591B4918FB776
:10045000F894EC91611103C020952E2301C02E2B3E
:100460002C938FBF08958E3008F08E508770806473
:1004700080937C0080917A00806480937A008091E0
:100480007A0086FDFCCF809178002091790090E081
:10049000922B08953FB7F8948091470190914801BD
:1004A000A0914901B0914A0126B5A89B05C02F3FF4
:1004B00019F00196A11DB11D3FBFBA2FA92F982F8A
:1004C0008827820F911DA11DB11DBC01CD0142E005
:1004D000660F771F881F991F4A95D1F708958F924D
:1004E0009F92AF92BF92CF92DF92EF92FF926B01F9
:1004F0007C010E944A024B015C01C114D104E10459
:10050000F104F1F00E944A02DC01CB01881999093B
:10051000AA09BB09883E9340A105B10570F321E00B
:10052000C21AD108E108F10888EE880E83E0981E0F
:10053000A11CB11CC114D104E104F10419F7DDCFF1
:10054000FF90EF90DF90CF90BF90AF909F908F90F3
:1005500008952FB7F8946091430170914401809100
:100560004501909146012FBF08958F929F92AF92BF
:10057000BF92CF92DF92EF92FF926B017C010E94BB
:10058000A9024B015C01C60ED71EE81EF91E0E948F
:10059000A902681579058A059B0528F0C616D706B5
:1005A000E806F906A0F7FF90EF90DF90CF90BF909C
:1005B000AF909F908F9008950F931F93CF93DF93E9
:1005C000EC0188A58823C9F00E94A90208A119A1FD
:1005D0002AA13BA1DC01CB01801B910BA20BB30B29
:1005E000813D9740A105B10580F061E08C81DF91EC
:1005F000CF911F910F910C94E70181E088A70E9491
:10060000A90268A379A38AA39BA3DF91CF911F912D
:100610000F910895CF93DF93EC0188810E94BE0073
:100620008A810E94BE008C81DF91CF910C94BE0024
:10063000009769F0FC0101900020E9F73197AF01C4
:10064000481B590BBC0183E591E00C94DD0080E070
:1006500090E008958F929F92AF92BF920F931F9355
:10066000CF93DF93CDB7DEB7A1970FB6F894DEBF77
:100670000FBECDBF19A2423008F44AE08E010F5DD3
:100680001F4F842E912CA12CB12CA50194010E9406
:100690003C0BE62FB901CA0101501109EA3014F4EC
:1006A000E05D01C0E95CD801EC93232B242B252BC2
:1006B00061F7C8010E941803A1960FB6F894DEBF37
:1006C0000FBECDBFDF91CF911F910F91BF90AF9023
:1006D0009F908F9008951F93CF93DF9300D000D009
:1006E000CDB7DEB783E591E00E941B0183E591E081
:1006F0000E941B0110E08A3379F0E1E0F0E0EC0F9A
:10070000FD1FE10FF11D17FDFA9580831F5F83E543
:1007100091E00E941B01EFCFCE0101960E94F209E9
:10072000182F83E591E00E941B01BC0177276053DD
:1007300071096230710518F4812F0E94E70183E589
:1007400091E00E941B018A3011F08D30C1F783E5E2
:1007500091E00E942F018A3021F483E591E00E940C
:100760001B010F900F900F900F90DF91CF911F9171
:1007700008950E940C0D2F923F924F925F926F92BC
:100780007F928F929F92AF92BF92CF92DF92EF9221
:10079000FF921F93CF93DF9300D000D0CDB7DEB789
:1007A0001C01DC0116968D919C911797009721F002
:1007B000019709F470C0FFC120E030E0A901F10108
:1007C000628D738D848D958D0E94180A882309F49B
:1007D000B5C0D10198961C92989760E014968C91C0
:1007E0000E94E701F10160897189072E000C880BD6
:1007F000990B0E941F0AD1015A962D913D914D915E
:100800005C915D970E947E0A9B01AC010E945F0B88
:100810009B01AC0160E074E284E799E40E94D00B94
:1008200020E030E040EA50E40E945E0B0E94420C5F
:100830004BB121E030E0F101008002C0220F331FF4
:100840000A94E2F7242B2BB9AB016230710540F01A
:10085000FB01EE0FFF1FEE0FFF1F35973197F1F7EA
:10086000EBB121E030E0D1010C9002C0220F331F28
:100870000A94E2F720952E232BB94230510508F453
:100880009AC1660F771F660F771F65507109CB01FC
:100890000197F1F790C1F10180849184A284B3841F
:1008A000A501940164857585868597850E945E0BF8
:1008B0006B017C0120E030E0A9010E94B00C181609
:1008C00024F0F7FAF094F7F8F09420E030E044E3F5
:1008D00053E4C701B6010E94B00C18166CF4A701CE
:1008E000960160E070E084EB93E40E945E0B562E6C
:1008F000672E782E192F04C05C2C6D2C7E2C1F2D9A
:10090000D10156962D913D914D915C9159975296FA
:100910006D917D918D919C9155970E947E0A9B01CE
:10092000AC01652D762D872D912F0E94180A87FF27
:100930001DC0F10184869586A686B786C1010F90F9
:100940000F900F900F90DF91CF911F91FF90EF903C
:10095000DF90CF90BF90AF909F908F907F906F90DF
:100960005F904F903F902F900C94DC0220E030E09D
:10097000A901D1015A966D917D918D919C915D97C0
:100980000E94180A8823D1F2F10110A660E0848148
:100990000E94E7012BED3FE049E450E4D1011C96B1
:1009A0006D917D918D919C911F970E947E0A20E010
:1009B00030E044E353E40E94D00B6B017C010E94C1
:1009C000CB0B2B013C01C701B6010E94B50C4B01BA
:1009D0005C012BED3FE049E450E4F1016085718555
:1009E000828593850E947E0A20E030E044E353E450
:1009F0000E94D00B6B017C010E94CB0B69837A8330
:100A00008B839C83C701B6010E94B50C9B01AC018E
:100A1000C301B2010E947E0A2B013C01A501940191
:100A200069817A818B819C810E947E0A9B01AC0145
:100A3000C301B2010E945E0B11E020E030E0A90189
:100A40000E94B00C18160CF010E0D1015E968C914B
:100A50005E978117A1F05E961C935E97112321F09B
:100A600060E012968C9103C061E0F10182810E94E6
:100A7000E70164E670E080E090E00E946F020E946F
:100A80004A02D1019496CD90DD90ED90FC9097971D
:100A90009B01AC012C193D094E095F0969017A01DE
:100AA00031E1C31637E2D306E104F10410F1949664
:100AB0006D937D938D939C93979781E05F968C9334
:100AC0005F972BB181E090E00C9002C0880F991FD6
:100AD0000A94E2F7822B8BB91896CD90DD90ED90B9
:100AE000FC901B97111120C060E070E080E89FE34C
:100AF0001FC0B9E8CB16B3E1DB06E104F10408F44A
:100B00005AC0F101878D882309F455C0178E2BB187
:100B100081E090E0008002C0880F991F0A94E2F7FC
:100B2000809582238BB947C060E070E080E89FEB3E
:100B3000D10152962D913D914D915C9155970E9416
:100B40007E0AF10126893789408D518D0E947E0AE7
:100B50009B01AC01C701B6010E945F0B6B017C01D8
:100B600020E030E044EB53E40E94B00C18164CF443
:100B700020E030E044EB53E4C701B6010E945E0B75
:100B800011C020E030E0A901C701B6010E94180A97
:100B900087FF0AC020E030E044EB53E4C701B60110
:100BA0000E945F0B6B017C01D1011896CD92DD9202
:100BB000ED92FC921B970F900F900F900F90DF918A
:100BC000CF911F91FF90EF90DF90CF90BF90AF90AB
:100BD0009F908F907F906F905F904F903F902F905D
:100BE00008951F920F920FB60F9211242F933F93E7
:100BF0004F935F936F937F938F939F93AF93BF9325
:100C0000EF93FF9383E591E00E945301FF91EF91F1
:100C1000BF91AF919F918F917F916F915F914F9114
:100C20003F912F910F900FBE0F901F9018951F921C
:100C30000F920FB60F9211242F938F939F93EF93E0
:100C4000FF93E0916301F09164018081E09169017B
:100C5000F0916A0182FD12C0908180916C018F5FDA
:100C60008F7320916D01821751F0E0916C01F0E0DB
:100C7000ED5AFE4F958F80936C0101C08081FF91EA
:100C8000EF919F918F912F910F900FBE0F901F901A
:100C900018951F920F920FB60F9211242F933F9326
:100CA0008F939F93AF93BF938091430190914401A1
:100CB000A0914501B09146013091420123E0230FFC
:100CC0002D3720F40196A11DB11D05C026E8230F84
:100CD0000296A11DB11D2093420180934301909380
:100CE0004401A0934501B093460180914701909142
:100CF0004801A0914901B0914A010196A11DB11D81
:100D00008093470190934801A0934901B0934A0111
:100D1000BF91AF919F918F913F912F910F900FBEF7
:100D20000F901F9018950F931F93CF93DF93E3E5D8
:100D3000F1E01382128288EE93E0A0E0B0E08483B9
:100D40009583A683B78384E091E09183808385ECCB
:100D500090E09587848784EC90E09787868780EC85
:100D600090E0918B808B81EC90E0938B828B82EC76
:100D700090E0958B848B86EC90E0978B868B118E20
:100D8000128E138E148EE0EFF1E016821782108619
:100D90001186128613861486158616861786108A83
:100DA000118A128A138A148A158AE3E6F2E0C1E0F6
:100DB000D0E0D783C68328EC30E0318B208B46E629
:100DC00056E666EE7FE3428B538B648B758B80E037
:100DD00090E0A0E8BFE3868B978BA08FB18F02E0F5
:100DE00010E01183008303E010E01383028306E028
:100DF00010E01583048310861186128613861486EC
:100E0000158616861786128E138E148E158E168EE4
:100E100010A211A212A213A214A215A216A217A226
:100E2000178EEAE3F2E0D783C683318B208B428BA7
:100E3000538B648B758B868B978BA08FB18F84E0DF
:100E400090E09183808385E090E09383828387E0C4
:100E500090E095838483108611861286138614860B
:100E6000158616861786128E138E148E158E168E84
:100E700010A211A212A213A214A215A216A217A2C6
:100E8000178EE6E3F2E08EE090E0918380838FE0BE
:100E900090E093838283DF91CF911F910F9108950A
:100EA000789484B5826084BD84B5816084BD85B545
:100EB000826085BD85B5816085BD80916E00816051
:100EC00080936E00109281008091810082608093F7
:100ED00081008091810081608093810080918000F9
:100EE0008160809380008091B10084608093B10024
:100EF0008091B00081608093B00080917A0084601E
:100F000080937A0080917A00826080937A00809149
:100F10007A00816080937A0080917A008068809363
:100F20007A001092C1001092320210923302109295
:100F30003402109235021092F2011092F3011092D5
:100F4000F4011092F50168EB7BE080E090E00E94F4
:100F5000B50268EE73E080E090E00E946F020E94AC
:100F600096000E94A9026093F2017093F3018093AE
:100F7000F4019093F50182E191E00E9418036AE088
:100F800070E080E090E00E94B50281E0809306026C
:100F90000E94A9026093F2017093F3018093F4011F
:100FA0009093F50183E291E00E94180383E692E0BA
:100FB0000E940A038AE392E00E940A0380E090E024
:100FC000A0E4BFE380937D0290937E02A0937F0212
:100FD000B09380028093540290935502A0935602DE
:100FE000B09357020E94960024EF822E9924939486
:100FF000A12CB12C0E94A902672B682B692B39F414
:101000000E94A9026230710581059105B0F10E942C
:10101000A90260934F017093500180935101909306
:101020005201C0904B01D0904C01E0904D01F090E6
:101030004E016C157D058E059F0540F460934B01B4
:1010400070934C0180934D0190934E01C0904B01E1
:10105000D0904C01E0904D01F0904E019B01AC010D
:101060002C193D094E095F0969017A013AEFC3164F
:10107000D104E104F10408F0FBC083E692E00E9491
:10108000BB038AE392E00E94BB03809136020E9478
:10109000330281159440A4F4809136020E943302F9
:1010A0009250BC01990F880B990B0E941F0A20E0F7
:1010B00030E040E05BE30E947E0A6B017C0106C0E9
:1010C000C12CD12C90E8E92E9FE3F92E80913802B3
:1010D0000E94330281159440A4F4809138020E944A
:1010E00033029250BC01990F880B990B0E941F0A82
:1010F00020E030E040E05BE30E947E0A2B013C01EF
:1011000006C0412C512C80E8682E8FE3782E20E019
:1011100030E0A901C701B6010E94B00C18165CF4BA
:101120002DEC3CEC4CEC5DE3C701B6010E94180AC3
:1011300087FF0EC00AC02DEC3CEC4CEC5DEBC70108
:10114000B6010E94B00C18161CF4C12CD12C7601EB
:1011500020E030E0A901C301B2010E94B00C1816D2
:101160005CF42DEC3CEC4CEC5DE3C301B2010E945D
:10117000180A87FF0EC00AC02DEC3CEC4CEC5DEB6E
:10118000C301B2010E94B00C18161CF4412C512C62
:10119000320120E030E044EB52E4C701B6010E9486
:1011A0007E0A6B017C0120E030E044EB53E40E94B6
:1011B000B00C18164CF420E030E044EB53E4C701C7
:1011C000B6010E945E0B11C020E030E0A901C7010A
:1011D000B6010E94180A87FF0AC020E030E044EB05
:1011E00053E4C701B6010E945F0B6B017C01C09202
:1011F0006F02D0927002E0927102F092720220E0CF
:1012000030E044EB52E4C301B2010E947E0A6B015C
:101210007C0120E030E044EB53E40E94B00C18164F
:101220004CF420E030E044EB53E4C701B6010E94E7
:101230005E0B11C020E030E0A901C701B6010E9499
:10124000180A87FF0AC020E030E044EB53E4C701EE
:10125000B6010E945F0B6B017C01C0924602D092E6
:101260004702E0924802F09249020E94DD01C2CE9C
:1012700060934B0170934C0180934D0190934E010C
:101280008092FE019092FF01A0920002B0920102B2
:1012900010920202109203021092040210920502B0
:1012A0008091F6019091F701A091F801B091F901B8
:1012B0008093FA019093FB01A093FC01B093FD0190
:1012C0000E94A9026093F6017093F7018093F801E0
:1012D0009093F90183E591E00E942F01843611F487
:1012E0000E946B030E94A9026093F2017093F301C4
:1012F0008093F4019093F5010E94A9026B017C0197
:101300008AE291E00E9418034AE061E070E080E028
:1013100090E00E942A0381E391E00E9418034AE0D2
:10132000C701B6010E942A0383E391E00E941803DB
:101330008091F6019091F701A091F801B091F90127
:10134000A7019601281B390B4A0B5B0BCA01B90197
:101350004AE00E942A0383E391E00E9418038091EF
:10136000F6019091F701A091F801B091F901C090B8
:10137000FA01D090FB01E090FC01F090FD01BC016E
:10138000CD016C197D098E099F094AE00E942A034C
:1013900085E391E00E9418030E94A9024AE00E949E
:1013A0002A0387E391E00E9418038EE391E00E94F4
:1013B000180362E070E080E090E00E94B50283E5EF
:1013C00091E00E942F01843611F40E946B030E9469
:1013D000A9026093F6017093F7018093F80190934E
:1013E000F9014BCEFC0188279927E89421912032FE
:1013F000E9F3293010F02E30C8F32B3241F02D32B2
:1014000039F4689404C00E94100A820F911D219142
:1014100020532A30C0F31EF4909581959F4F089574
:101420007AE0979F902D879F802D910D112408952C
:101430000E945A0A08F481E00895E89409C097FBD5
:101440003EF490958095709561957F4F8F4F9F4F9B
:101450009923A9F0F92F96E9BB279395F6958795DF
:1014600077956795B795F111F8CFFAF4BB0F11F4A2
:1014700060FF1BC06F5F7F4F8F4F9F4F16C0882349
:1014800011F096E911C0772321F09EE8872F762F7F
:1014900005C0662371F096E8862F70E060E02AF0C0
:1014A0009A95660F771F881FDAF7880F96958795AC
:1014B00097F90895990F0008550FAA0BE0E8FEEF81
:1014C00016161706E807F907C0F012161306E40708
:1014D000F50798F0621B730B840B950B39F40A2601
:1014E00061F0232B242B252B21F408950A2609F4DF
:1014F000A140A6958FEF811D811D08950E94910A3C
:101500000C94020B0E94F40A38F00E94FB0A20F0AF
:10151000952311F00C94EB0A0C94F10A11240C940D
:10152000360B0E94130B70F3959FC1F3950F50E09B
:10153000551F629FF001729FBB27F00DB11D639F85
:10154000AA27F00DB11DAA1F649F6627B00DA11D2B
:10155000661F829F2227B00DA11D621F739FB00DD1
:10156000A11D621F839FA00D611D221F749F332741
:10157000A00D611D231F849F600D211D822F762FDA
:101580006A2F11249F5750409AF0F1F088234AF0B7
:10159000EE0FFF1FBB1F661F771F881F9150504023
:1015A000A9F79E3F510580F00C94EB0A0C94360B82
:1015B0005F3FE4F3983ED4F3869577956795B795AA
:1015C000F795E7959F5FC1F7FE2B880F911D9695C4
:1015D000879597F9089597F99F6780E870E060E034
:1015E00008959FEF80EC089500240A9416161706BC
:1015F00018060906089500240A9412161306140604
:1016000005060895092E0394000C11F4882352F066
:10161000BB0F40F4BF2B11F460FF04C06F5F7F4F1E
:101620008F4F9F4F089557FD9058440F551F59F005
:101630005F3F71F04795880F97FB991F61F09F3FBF
:1016400079F087950895121613061406551FF2CFE8
:101650004695F1DF08C0161617061806991FF1CF38
:1016600086957105610508940895E894BB2766275F
:101670007727CB0197F90895A1E21A2EAA1BBB1B6D
:10168000FD010DC0AA1FBB1FEE1FFF1FA217B3074E
:10169000E407F50720F0A21BB30BE40BF50B661F64
:1016A000771F881F991F1A9469F760957095809528
:1016B00090959B01AC01BD01CF0108955058BB2707
:1016C000AA270E94760B0C94020B0E94F40A38F0B1
:1016D0000E94FB0A20F039F49F3F19F426F40C9481
:1016E000F10A0EF4E095E7FB0C94EB0AE92F0E9457
:1016F000130B58F3BA17620773078407950720F096
:1017000079F4A6F50C94350B0EF4E0950B2EBA2F58
:10171000A02D0B01B90190010C01CA01A0011124F7
:10172000FF27591B99F0593F50F4503E68F11A16A3
:10173000F040A22F232F342F4427585FF3CF469534
:1017400037952795A795F0405395C9F77EF41F1656
:10175000BA0B620B730B840BBAF09150A1F0FF0F20
:10176000BB1F661F771F881FC2F70EC0BA0F621F0C
:10177000731F841F48F4879577956795B795F795FC
:101780009E3F08F0B0CF9395880F08F09927EE0F91
:101790009795879508950E94730CE3950C949C0C83
:1017A0000E94E40B0C94020B0E94FB0A58F00E946A
:1017B000F40A40F029F45F3F29F00C94EB0A511130
:1017C0000C94360B0C94F10A0E94130B68F39923C6
:1017D000B1F3552391F3951B550BBB27AA2762172D
:1017E0007307840738F09F5F5F4F220F331F441F3A
:1017F000AA1FA9F335D00E2E3AF0E0E832D091506E
:101800005040E695001CCAF72BD0FE2F29D0660F5A
:10181000771F881FBB1F261737074807AB07B0E89D
:1018200009F0BB0B802DBF01FF2793585F4F3AF0A3
:101830009E3F510578F00C94EB0A0C94360B5F3FF9
:10184000E4F3983ED4F3869577956795B795F79529
:101850009F5FC9F7880F911D9695879597F9089511
:10186000E1E0660F771F881FBB1F621773078407AD
:10187000BA0720F0621B730B840BBA0BEE1F88F7BC
:10188000E09508950E941B0B88F09F5798F0B92FA0
:101890009927B751B0F0E1F0660F771F881F991FA5
:1018A0001AF0BA95C9F714C0B13091F00E94350B07
:1018B000B1E008950C94350B672F782F8827B85F17
:1018C00039F0B93FCCF3869577956795B395D9F7FD
:1018D0003EF490958095709561957F4F8F4F9F4F07
:1018E00008950C94F10A0E941B0BD8F3E894E0E0F1
:1018F000BB279F57F0F02AED3FE049EC06C0EE0F02
:10190000BB0F661F771F881F28F0B23A6207730764
:10191000840728F0B25A620B730B840BE3959A95F7
:1019200072F7803830F49A95BB0F661F771F881FB7
:10193000D2F790480C94BF0CEF93E0FF07C0A2EAE7
:101940002AED3FE049EC5FEB0E94760B0E94020B10
:101950000F90039401FC9058E8E6F0E00C94CB0C57
:101960000E945A0A08F48FEF08959F930E94730C07
:101970000F9007FCEE5F0C949C0C9F3F31F0915050
:1019800020F4879577956795B795880F911D969563
:10199000879597F908959F938F937F936F93FF9304
:1019A000EF939B01AC010E947E0AEF91FF910E9490
:1019B000DF0C2F913F914F915F910C947E0ADF9342
:1019C000CF931F930F93FF92EF92DF927B018C01D5
:1019D000689406C0DA2EEF010E94910AFE01E89495
:1019E000A5912591359145915591A6F3EF010E945E
:1019F000760BFE019701A801DA9469F7DF90EF906A
:101A0000FF900F911F91CF91DF910895EE0FFF1F6F
:101A10000590F491E02D099481E090E0F8940C9405
:061A2000110DF894FFCF48
:101A2600000000007401DD000C01BB013D011B013B
:101A36002F01564D4450565F317C315F564D445010
:101A4600560A00564D4450525F00564D4450455F6D
:101A5600003A323A007C005F564D445045000D0A6C
:021A660000007E
:107E0000112484B714BE81FFF0D085E080938100F7
:107E100082E08093C00088E18093C10086E0809377
:107E2000C20080E18093C4008EE0C9D0259A86E02C
:107E300020E33CEF91E0309385002093840096BBD3
:107E4000B09BFECF1D9AA8958150A9F7CC24DD24C4
:107E500088248394B5E0AB2EA1E19A2EF3E0BF2EE7
:107E6000A2D0813461F49FD0082FAFD0023811F036
:107E7000013811F484E001C083E08DD089C08234E0
:107E800011F484E103C0853419F485E0A6D080C0E4
:107E9000853579F488D0E82EFF2485D0082F10E0AE
:107EA000102F00270E291F29000F111F8ED06801E7
:107EB0006FC0863521F484E090D080E0DECF843638
:107EC00009F040C070D06FD0082F6DD080E0C81688
:107ED00080E7D80618F4F601B7BEE895C0E0D1E017
:107EE00062D089930C17E1F7F0E0CF16F0E7DF06D8
:107EF00018F0F601B7BEE89568D007B600FCFDCFD4
:107F0000A601A0E0B1E02C9130E011968C91119780
:107F100090E0982F8827822B932B1296FA010C0160
:107F200087BEE89511244E5F5F4FF1E0A038BF0790
:107F300051F7F601A7BEE89507B600FCFDCF97BE46
:107F4000E89526C08437B1F42ED02DD0F82E2BD052
:107F50003CD0F601EF2C8F010F5F1F4F84911BD097
:107F6000EA94F801C1F70894C11CD11CFA94CF0C13
:107F7000D11C0EC0853739F428D08EE10CD085E9AC
:107F80000AD08FE07ACF813511F488E018D01DD067
:107F900080E101D065CF982F8091C00085FFFCCF94
:107FA0009093C60008958091C00087FFFCCF809118
:107FB000C00084FD01C0A8958091C6000895E0E648
:107FC000F0E098E1908380830895EDDF803219F02E
:107FD00088E0F5DFFFCF84E1DECF1F93182FE3DFCA
:107FE0001150E9F7F2DF1F91089580E0E8DFEE27F6
:047FF000FF270994CA
:027FFE00040479
:0400000300007E007B
:00000001FF